:04000000FEEF7FF0A0
:10100000000075EC08F0240E016E090E63EC08F088
:10101000F40E056E820E046E050EE82EFED7042E29
:10102000FCD7052EFAD70000F40E056E820E046E72
:10103000050EE82EFED7042EFCD7052EFAD70000A9
:10104000120E016E120E63EC08F0F40E056E820EA5
:10105000046E050EE82EFED7042EFCD7052EFAD717
:101060000000090E016E240E63EC08F0F40E056E0C
:10107000820E046E050EE82EFED7042EFCD7052E38
:10108000FAD70000F40E056E820E046E050EE82EEF
:10109000FED7042EFCD7052EFAD70000120E016EE3
:1010A000120E63EC08F0F40E056E820E046E050E4F
:1010B000E82EFED7042EFCD7052EFAD7000003EF4A
:1010C00008F0FEEF7FF0036E03C002F03F0E021641
:1010D0008C50C00B02108C6E01C002F03F0E021645
:1010E0008A50C00B02108A6E1200700ED36E400E32
:1010F0009B6E0F01396B3B6BC00E9316C00E95169D
:10110000090E016E090E63EC08F01200000101EFF8
:0211100008F0E5
:04FFFC0086EF08F094
:020000040030CA
:0E000000FF380E3CFFBF85FF0FC00FE00F4022
:00000001FF
