:04000000FEEF7FF0A0
:10100000005F069B8FC6CDDD07DFCF0062EC09F0E5
:10101000096A0AEF09F0240E016E090E97EC09F037
:10102000170E026E700E016E31EC09F00009D8B493
:101030001CEF08F01EEF08F022EF08F0050E096E15
:101040000AEF09F0010E096E0AEF09F0120E016EA7
:10105000120E97EC09F00B0E026EB80E016E31EC19
:1010600009F00009D8B437EF08F039EF08F03BEF8A
:1010700008F01EEF08F00A50D8B441EF08F043EF33
:1010800008F047EF08F0040E096E0AEF09F0020EAF
:10109000096E0AEF09F0090E016E240E97EC09F0B3
:1010A000090E086E08507DEC09F0030E026EE80E82
:1010B000016E31EC09F00009D8B461EF08F063EF7C
:1010C00008F067EF08F0050E096E6FEF08F00806EC
:1010D00008BE6FEF08F06DEF08F052EF08F0050E54
:1010E0000918D8B476EF08F078EF08F00AEF09F0A5
:1010F0000A6A8998AFEC09F047EF08F0090E016E13
:10110000240E97EC09F0170E026E700E016E31EC92
:1011100009F00009D8B48FEF08F091EF08F093EFD1
:1011200008F01EEF08F0030E096E0AEF09F0120E28
:10113000016E120E97EC09F00B0E026EB80E016EE6
:1011400031EC09F00009D8B4A8EF08F0AAEF08F0D4
:10115000ACEF08F01EEF08F00A50D8B4B2EF08F078
:10116000B4EF08F008EF08F043EF08F0340E066E15
:10117000F20EE82EFED7062EFCD782AAC2EF08F0A8
:10118000C4EF08F0B6EF08F0090E016E090E97ECF7
:1011900009F0010E026EF40E016E31EC09F0000947
:1011A000D8B4D5EF08F0D7EF08F0D9EF08F0F5EF95
:1011B00008F0000E016E000E97EC09F0010E026EB1
:1011C000F40E016E31EC09F00009D8B4EAEF08F032
:1011D000ECEF08F0C4EF08F0F5EF08F0340E066EFF
:1011E000F20EE82EFED7062EFCD782AAFAEF08F000
:1011F000FCEF08F0EEEF08F0090E016E090E97EC17
:1012000009F008EF08F0090E016E090E97EC09F0DD
:1012100008EF08F00950066E076A0750000AD8B4B4
:1012200014EF09F003EF09F00650000AD8B40BEFF1
:1012300008F0010AD8B426EF08F0030AD8B47EEF0C
:1012400008F0010AD8B497EF08F0070AD8B44BEFBA
:1012500008F0010AD8B4BDEF08F003EF09F0FEEF83
:101260007FF0056A000E046E55EF09F084B03BEF85
:1012700009F03DEF09F040EF09F0010E0A6E898890
:1012800082BA45EF09F047EF09F04AEF09F0010E85
:1012900061EF09F0340E036EF20EE82EFED7032E36
:1012A000FCD70A0E0426000E05220150045C0250F1
:1012B0000558D8A05EEF09F060EF09F036EF09F0AD
:1012C000000E1200720ED36E9B9C0F01396B3B6BAC
:1012D000386B3A6B3C6BC00E9316C00E9516200E01
:1012E000946E9680899892988B50200B8B6E090E85
:1012F000016E090E97EC09F01200036E0A0E0360EE
:1013000084EF09F086EF09F096EF09F00350010F22
:10131000016E01C0F6FF100EF76E0800F5CF02F067
:10132000DF0E02168B50200B02108B6E1200036E24
:1013300003C002F03F0E02168C50C00B02108C6EE0
:1013400001C002F03F0E02168A50C00B02108A6ED6
:1013500012000A6A000EF86E000106EF08F0200E77
:041360008B161200D6
:04FFFC00A9EF09F070
:020000040030CA
:0E000000FF380E3CFFBF85FF0FC00FE00F4022
:00000001FF
